:100000000C9470000C9498000C9498000C94980038
:100010000C9498000C9498000C9498000C94980000
:100020000C9498000C9498000C9498000C949800F0
:100030000C9498000C9498000C9498000C949800E0
:100040000C941F110C9498000C9464140C94A71435
:100050000C9498000C9498000C9498000C949800C0
:100060000C9498000C9498002C002C002C002C0070
:100070002C002C002C002C002C002C002C002C0020
:100080002C002C002C002C000000000700020100B6
:100090000003040600000000000000000102040844
:1000A00010204080010204081020010204081020E2
:1000B000040404040404040402020202020203030E
:1000C0000303030300000000250028002B000000AC
:1000D0000000240027002A00BD05930BD70F6315ED
:1000E00011241FBECFEFD8E0DEBFCDBF12E0A0E0ED
:1000F000B1E0E4EBF1E302C005900D92AE32B1073E
:10010000D9F726E0AEE2B2E001C01D92AF30B207EF
:10011000E1F710E0C0E7D0E004C02197FE010E94A3
:100120003918CC36D107C9F70E94B8130C94D818E7
:100130000C940000FC01858596850895CF93DF938C
:1001400000D000D000D0CDB7DEB7AB011C821D823D
:100150001E82DC01ED91FC910190F081E02D19826D
:100160001A821B829E012F5F3F4FBE016C5F7F4F43
:10017000099526960FB6F894DEBF0FBECDBFDF916E
:10018000CF91089580E991E00895529A0895809161
:100190005F0290916002089580915D0290915E02ED
:1001A000089581E090E0089580910A0190910B01FB
:1001B000089560915F0270916002482F80915D0206
:1001C00090915E020C94591090930B0180930A0158
:1001D0000895809158029091590208958091560295
:1001E000909157020895809154029091550208957C
:1001F0008091520290915302089580915002909103
:100200005102089580910801909109010895EF929B
:10021000FF920F931F9390930901809308017093AD
:1002200059026093580250935702409356023093FC
:100230005502209354021093530200935202F092FD
:100240005102E09250021F910F91FF90EF9008959C
:10025000EAE5F2E02081DC012C93218111962C93B8
:100260001197228112962C930895DC01EAE5F2E0C1
:100270008C91808311968C911197818312968C9129
:100280008283089580934B050895CF92DF92EF9279
:10029000FF920F931F930E94691100914C021091DD
:1002A0004D0220914E0230914F026B017C01C01A29
:1002B000D10AE20AF30A97018601033311052105E9
:1002C0003105F0F48EE00E940211811524E09207BE
:1002D000BCF520914A0230914B022817390720F4CF
:1002E00090934B0280934A022091040130910501C2
:1002F0008217930728F5909305018093040120C08D
:1003000060934C0270934D0280934E0290934F0283
:1003100080914A0290914B02209104013091050195
:10032000821B930B909349028093480280E094E0F3
:10033000909305018093040110924B0210924A029F
:100340001F910F91FF90EF90DF90CF9008958091D3
:100350004802909149020895809106019091070109
:10036000089560914B058BE495E00C940E0F8093FB
:100370004B0580930601909307010C94B101FC0199
:10038000EE0FFF1FE80FF91F80915D0290915E0252
:10039000E80FF91F6083418322830895FF920F9332
:1003A0001F93CF93DF93182F062FF42EC0E0D0E0D9
:1003B000E0915F02F0916002CE17DF0744F42F2D29
:1003C000402F612FCE010E94BF012196F1CFDF9116
:1003D000CF911F910F91FF900C94B1010F931F9338
:1003E000CF93DF93EC019093600280935F02880FBC
:1003F000991F8C0F9D1F0E9491128C0190935E0299
:1004000080935D028091400281114DC080E492E0B2
:100410000E94C513892B09F446C010923202109233
:1004200031029FEF909335029093360290933702FA
:10043000909338029093390290933A0281E080932E
:100440003B0210923D0210923C0210923402109234
:1004500033028091490590914A05892B31F48FE24E
:1004600092E090934A0580934905E0914705F09109
:100470004805309721F08FE292E0958384838FE2E4
:1004800092E0909348058093470510923F021092A6
:100490003E0287E191E09093300280932F0280E446
:1004A00092E00E94CE1320E030E0AE01B8018FE26E
:1004B00092E00E945C0EFC018FEF868380EB8783C5
:1004C00080EF808780910601909107010E94B7011B
:1004D00040E060E080E00E94CE0160E08DE0DF91CE
:1004E000CF911F910F910C945B129F92AF92BF928C
:1004F000CF92DF92EF92FF920F931F93CF93DF93F0
:10050000FC01C080D1802BB12460B22E9BB19B7FB7
:100510009BB962858781062F081B802F078377850B
:10052000A281B38135854485568599249394930E91
:100530004F5F5F5FF680E084C185D385F60111814E
:10054000A12C0A2D2A2D3A2D3181112788943111A1
:10055000380F08F43FEF8195889490FC130F17959E
:10056000889491FC130F1795889492FC130F17959C
:10057000889493FC130F1795889494FC130F179588
:10058000889495FC130F1795889496FC130F179574
:10059000889497FC130F17958894032F9110012FBF
:1005A000860F102F002CBBB800C017FF9BB93081FD
:1005B0000027889400C000C0002C9BB931113F0D6A
:1005C00000C0002CBBB800C016FF9BB908F43FEF79
:1005D000F194889400C000C0002C9BB940FD030F2B
:1005E00000C0002CBBB800C015FF9BB907958894CC
:1005F00041FD030F00C000C0002C9BB907958894F3
:1006000000C0002CBBB800C014FF9BB942FD030F13
:100610000795889400C000C0002C9BB943FD030FD0
:1006200000C0002CBBB800C013FF9BB9079588948D
:1006300044FD030F00C000C0002C9BB907958894AF
:1006400000C0002CBBB800C012FF9BB945FD030FD2
:100650000795889400C000C0002C9BB946FD030F8D
:1006600000C0002CBBB800C011FF9BB9079588944F
:1006700047FD030F00C000C0002C9BB9079588946C
:1006800000C0002CBBB800C010FF9BB9132F411154
:10069000102FFC0E00C000C0002C9BB900C000C091
:1006A000002CBBB800C017FF9BB93281002788948B
:1006B00000C000C0002C9BB931113E0D00C0002CC1
:1006C000BBB800C016FF9BB908F43FEFE70FF11D60
:1006D00000C000C0002C9BB950FD030F00C0002CCF
:1006E000BBB800C015FF9BB90795889451FD030F57
:1006F00000C000C0002C9BB90795889400C0002C56
:10070000BBB800C014FF9BB952FD030F0795889436
:1007100000C000C0002C9BB953FD030F00C0002C8B
:10072000BBB800C013FF9BB90795889454FD030F15
:1007300000C000C0002C9BB90795889400C0002C15
:10074000BBB800C012FF9BB955FD030F07958894F5
:1007500000C000C0002C9BB956FD030F00C0002C48
:10076000BBB800C011FF9BB90795889457FD030FD4
:1007700000C000C0002C9BB90795889400C0002CD5
:10078000BBB800C010FF9BB9132F5111102FE1947B
:1007900000C000C0002C9BB9ED0E00C000C0BBB86B
:1007A00000C017FF9BB931810027889400C000C0AA
:1007B000002C9BB93111380F00C0002CBBB800C011
:1007C00016FF9BB908F43FEF8195889400C000C0E4
:1007D000002C9BB990FC030F00C0002CBBB800C0DC
:1007E00015FF9BB90795889491FC030F00C000C0CA
:1007F000002C9BB90795889400C0002CBBB800C0A2
:1008000014FF9BB992FC030F0795889400C000C0A9
:10081000002C9BB993FC030F00C0002CBBB800C098
:1008200013FF9BB90795889494FC030F00C000C088
:10083000002C9BB90795889400C0002CBBB800C061
:1008400012FF9BB995FC030F0795889400C000C068
:10085000002C9BB996FC030F00C0002CBBB800C055
:1008600011FF9BB90795889497FC030F00C000C047
:10087000002C9BB90795889400C0002CBBB800C021
:1008800010FF9BB9132F9110102F860F00C000C0CE
:10089000002C9BB9119709F086CEDF91CF911F9163
:1008A0000F91FF90EF90DF90CF90BF90AF909F900F
:1008B00008950F931F93CF93DF93EC018B010E9458
:1008C00075112F853889621B730B6A307105B8F377
:1008D000F894C8010E947502D8011296ED91FC911E
:1008E000139720EE31E0DF010E942718AB01BC0115
:1008F000A4E07695679557954795AA95D1F780E03E
:1009000090E09C01AAE9EA9F0E0E211DFA9F200D9E
:10091000311D11242F0F311D420F531F611D711DF9
:10092000493EB3E05B076105710508F434C0485ED9
:1009300053406109710922E076956795579547956F
:100940002A95D1F727E0429F040E811D529F800D0A
:10095000911D1124850F911D2091610230E0420FFD
:10096000531F480F591F8091590590915A05A09126
:100970005B05B0915C05252F3327820F931FA11DC6
:10098000B11D8093590590935A05A0935B05B093D0
:100990005C054093610278940E947511788B6F8793
:1009A000DF91CF911F910F910895FC01118A108A58
:1009B0000895EF92FF920F931F93CF93DF93EC0173
:1009C00090912E029F5F292F277020932E0290FF77
:1009D00002C090E801C090E021FD9064247009F00D
:1009E000906220E1290FFE013C967E018FE0E80E27
:1009F000F11C00E011E06191662331F070E0C80164
:100A00000E94D2176F5F01C060E0DF0114976C9302
:100A1000322F369F030E30E0311D1124CF0107978E
:100A2000311103C0EC01188203C03150EC0138834E
:100A3000662311F061506C93EE15FF05E1F6DF912E
:100A4000CF911F910F91FF90EF900895EF92FF9239
:100A50000F931F93CF93DF93CDB7DEB762970FB697
:100A6000F894DEBF0FBECDBF8C017A01F901DC0125
:100A70001C968C917A8369835C834B835E834D8360
:100A800090819D8791819E8792819F87813029F4F3
:100A9000CE0101960E94D90406C01C861B861A86C8
:100AA000198618861F82188AB701CE0101960E9406
:100AB000D504D801ED91FC910484F585E02DBE01AB
:100AC0006F5F7F4FC801099562960FB6F894DEBF3D
:100AD0000FBECDBFDF91CF911F910F91FF90EF908F
:100AE0000895EF92FF920F931F93CF93DF93CDB7AB
:100AF000DEB762970FB6F894DEBF0FBECDBF8C0194
:100B00007A01F901DC011C968C917A8369835C83FC
:100B10004B835E834D8390819D8791819E879281D7
:100B20009F87813029F4CE0101960E94D90406C026
:100B30001C861B861A86198618861F8283E0888B7E
:100B4000B701CE0101960E94D504D801ED91FC9128
:100B50000484F585E02DBE016F5F7F4FC8010995C4
:100B600062960FB6F894DEBF0FBECDBFDF91CF9176
:100B70001F910F91FF90EF900895EAE5F2E0108247
:100B8000118212820895AA2797FDA095BA2F80930B
:100B90006E0290936F02A0937002B0937102089559
:100BA00080916E0290916F020895CF92DF92EF9242
:100BB000FF920F931F9380916C0290916D02892B8D
:100BC00009F46CC080916A0290916B02892B09F440
:100BD00065C00E9469116B017C0180916202909155
:100BE0006302A0916402B091650240916602509147
:100BF0006702609168027091690297018601041B87
:100C0000150B260B370BB901A80100916E0210914C
:100C10006F022091700230917102041715072607A8
:100C2000370780F4E0916C02F0916D0209950E9403
:100C300069116093660270936702809368029093D3
:100C400069021AC0A7019601281B390B4A0B5B0BDE
:100C50002B3031054105510578F0E0916A02F091A1
:100C60006B0209950E94691160936202709363029E
:100C70008093640290936502C701B6010E94A008A8
:100C800041E050E060E070E08BE495E01F910F914F
:100C9000FF90EF90DF90CF900C94A00F1F910F91D9
:100CA000FF90EF90DF90CF90089590936D02809326
:100CB0006C0270936B0260936A021092660210924B
:100CC000670210926802109269020895982F86FDBB
:100CD0009095E92FEF739F7086FD9F5FE695E695EF
:100CE000E695E670F0E0EB5DFE4F2181299F202D17
:100CF000912D112422952F709295907F292B908110
:100D0000920F87FD02C0892F02C0892F81958058DC
:100D10000895FC0160810C940E0F089508954F9280
:100D20005F926F927F92AF92BF92CF92DF92EF92DB
:100D3000FF920F931F93CF93DF9300D01F92CDB7F5
:100D4000DEB7E0917302F0917402EE0FFF1FE35DD6
:100D5000FE4F60817181882777FD8095982F1F92C3
:100D60001F921F922FEF2F93A12CB12C6501EE241F
:100D7000EA941FE0F12E00E010E020E030E0A9014D
:100D80000E940A162B013C010E94AC019C01B20199
:100D9000882777FD8095982F2901662457FC609459
:100DA000762C7F926F925F924F92E12CF12C87010B
:100DB000EA9420E030E0A9010E940A162B013C01D0
:100DC000CE0101960E9428014B816A8189810E948F
:100DD000CE01C2010E9442018BE495E00E94890687
:100DE000809173029091740201960FB6F894DEBF61
:100DF0000FBECDBF883791052CF490937402809379
:100E0000730204C010927402109273020F900F903C
:100E10000F90DF91CF911F910F91FF90EF90DF9096
:100E2000CF90BF90AF907F906F905F904F9008955C
:100E30008FEF9FEF90937402809373020895CF9386
:100E4000DF9300D01F92CDB7DEB7CE0101960E948E
:100E500028010E94C7002091730230917402281764
:100E6000390724F010927402109273022B814A8188
:100E7000698180917302909174020E94BF018BE49A
:100E800095E00E9489060F900F900F90DF91CF910F
:100E90000895809173029091740201969093740268
:100EA0008093730280E091E00C94D9001092740258
:100EB000109273020895FF920F931F93CF93DF93C5
:100EC00000D01F92CDB7DEB7CE0101960E94280157
:100ED0002B814A81698180917302909174020E94F2
:100EE000BF010E94C700F82E0E94D0058C018F3FE1
:100EF000910509F010F4182F00270E9469119B0139
:100F0000AC01A8E1B1E00E942E189B01AC01D80110
:100F10000E942E18892F0E946606282F3F2D239F9E
:100F2000020E20E0211D1124822F90E09093740284
:100F3000809373028BE495E00E9489060F900F90D6
:100F40000F90DF91CF911F910F91FF90089580E452
:100F500090E00C94D9001092720208950F931F93A1
:100F6000CF93DF931F92CDB7DEB7409172024983D2
:100F70000E94C7008C010E94CC0025E04981B80185
:100F80000E94FC0F8BE495E00F90DF91CF911F91B1
:100F90000F910C9489060E94EE00019729F40E949B
:100FA0009C18609372020895809172028F5F809303
:100FB0007202089508950895AF92BF92CF92DF9282
:100FC000EF92FF920F931F930E94A701BC0180E054
:100FD00090E01F921F921F922FEF2F93A12CB12C04
:100FE0006501E12C14E0F12E00E010E020E030E09B
:100FF000A9010E940A16CB010E94B7010F900F9021
:101000000F900F908BE495E01F910F91FF90EF9060
:10101000DF90CF90BF90AF900C948906109274022D
:10102000109273020895FF920F931F93CF93DF9353
:1010300000D01F92CDB7DEB7CE0101960E942801E5
:101040002B814A81698180917302909174020E9480
:10105000BF010E94C700F82E0E94A7018C018F3F9C
:10106000910509F010F4182F00270E9469119B01C7
:10107000AC01A8E1B1E00E942E189B01AC01D8019F
:101080000E942E18892F0E946606282F3F2D239F2D
:10109000020E20E0211D1124822F90E09093740213
:1010A000809373028BE495E00E9489060F900F9065
:1010B0000F90DF91CF911F910F91FF90089580E4E1
:1010C00090E00C94D90010927D0210927E02109252
:1010D0007F02109280020E946911609379027093DE
:1010E0007A0280937B0290937C02609375027093E6
:1010F00076028093770290937802089560917D0242
:1011000070917E0280917F029091800208950F93EA
:101110001F936091790270917A0280917B02909185
:101120007C02009175021091760220917702309135
:101130007802601B710B820B930B1F910F91089526
:101140000F931F93613823EE72072FEF82079207E8
:1011500078F400917D0210917E0220917F023091FF
:101160008002013843EE14074FEF2407340720F0C4
:101170001F910F910C9463080F5F1F4F2F4F3F4F2C
:1011800000937D0210937E0220937F0230938002B1
:101190006093790270937A0280937B0290937C0231
:1011A0001F910F910895089581E892E00E94E60D45
:1011B000BC0181E695E00E94B4166EE670E081E61F
:1011C00095E00E948F160E947E08AB01BC012AE0C8
:1011D00030E081E695E00E9494176CE670E081E6CD
:1011E00095E00E948F160E948708AB01BC012AE09F
:1011F00030E081E695E00E9494176AE670E081E6AF
:1012000095E00E948F160E94A7014AE050E0BC01C1
:1012100081E695E00E94A81768E670E081E695E017
:101220000E948F160E94D1004AE050E0BC0181E686
:1012300095E00C947C17CF93DF9300D01F92CDB72D
:10124000DEB766E870E081E695E00E948F160E94A6
:10125000D4004AE050E0BC0181E695E00E9474179A
:1012600064E870E081E695E00E948F160E94AC0170
:101270004AE050E0BC0181E695E00E94741762E804
:1012800070E081E695E00E948F16CE0101960E94E3
:1012900028014AE050E0698181E695E00E94A117AB
:1012A00060E870E081E695E00E948F164AE050E029
:1012B0006A8181E695E00E94A1176EE770E081E601
:1012C00095E00E948F164AE050E06B8181E695E040
:1012D0000E94A1176CE770E081E695E00E948F16EE
:1012E0000E9402014AE050E0BC0181E695E00E94C4
:1012F00074176AE770E081E695E00E948F160E94FD
:10130000E9004AE050E0BC0181E695E00E947417D4
:1013100068E770E081E695E00E948F160E94EE007B
:101320004AE050E0BC0181E695E00E94741766E750
:1013300070E081E695E00E948F160E94F3004AE07B
:1013400050E0BC0181E695E00E94741764E770E00C
:1013500081E695E00E948F160E94F8004AE050E076
:10136000BC0181E695E00E94741762E770E081E6B7
:1013700095E00E948F160E94FD004AE050E0BC01FB
:1013800081E695E00E94741760E770E081E695E0E1
:101390000E948F160E94D1004AE050E0BC0181E615
:1013A00095E00E947C170F900F900F90DF91CF91E6
:1013B000089581E892E00E94E60DBC0181E695E087
:1013C0000E94B4160C941B090F931F93CF93DF93C5
:1013D00000D01F92CDB7DEB781E892E00E94E60D03
:1013E0008C0181E892E00E94BC0C0E94B701CE0102
:1013F00001960E9428014B816A8189810E94CE0159
:1014000061E08DE00E945B1281E090E00E94E400C8
:10141000B80181E695E00E94B4160E941B090F9066
:101420000F900F90DF91CF911F910F910895CF935F
:10143000DF9381E892E00E94E60DEC0140E060E07D
:1014400080E00E94CE0160E08DE00E945B1280E0AF
:1014500090E00E94E400BE0181E695E00E94B4168F
:10146000DF91CF910C941B09CF93DF9381E892E039
:101470000E94E60DEC0181E892E00E94BC0C0E9403
:10148000B701BE0181E695E00E94B416DF91CF91CD
:101490000C941B09EF92FF920F931F93CF93DF934E
:1014A00000D000D0CDB7DEB781E892E00E94E60D13
:1014B0007C0181E892E00E94BC0C182F81E892E048
:1014C0000E94BC0C082F81E892E00E94BC0C482FBF
:1014D00019830A838B83CE0101964C830E943501C8
:1014E0000E94D4004C81019721F4602F812F0E942B
:1014F000CE01B70181E695E00E94B4160E941B0957
:101500000F900F900F900F90DF91CF911F910F913F
:10151000FF90EF9008954F925F926F927F928F921B
:101520009F92AF92BF92CF92DF92EF92FF920F9372
:101530001F93CF93DF930E9402015C0181E892E048
:101540000E94E60D2C0181E892E00E94BC0CEC01A7
:1015500081E892E00E94BC0C6C0181E892E00E945C
:10156000BC0C4C0181E892E00E94BC0C3C0181E87B
:1015700092E00E94BC0C8C0181E892E00E94BC0CBD
:101580007C019301A401B601CE010E940701CA1596
:10159000DB05F1F1C130D10539F40E948D066EE80A
:1015A00076E08FE896E030C0C230D10539F40E9471
:1015B00018076FE177E089E497E026C0C330D105D2
:1015C00039F40E9456076BE577E087EA97E01CC084
:1015D000C430D10539F40E94AB076EEA77E08BEC9A
:1015E00097E012C0C530D10539F40E94DA076BEDDF
:1015F00077E08CED97E008C0269741F40E940E0832
:1016000063E178E08FE598E00E9455060E94630848
:101610001C141D0414F4C60102C084E690E00E946C
:10162000C305B20181E695E00E94B416DF91CF9127
:101630001F910F91FF90EF90DF90CF90BF90AF90F0
:101640009F908F907F906F905F904F900C941B09AC
:1016500049ED59E060E081E892E00E94D90B44EE48
:1016600059E061E081E892E00E94D90B47E15AE03D
:1016700062E081E892E00E94D90B44E35AE063E023
:1016800081E892E00E94D90B4AE45AE064E081E8E4
:1016900092E00E94D90B4BE85AE065E081E892E0C5
:1016A0000E94D90B44ED58E066E081E892E00E9488
:1016B000D90B63ED78E081E892E00C94D30B68EBF2
:1016C0007BE080E090E00E94981140E05BE460E005
:1016D00070E081E695E00E94E21461E08DE00E94F6
:1016E000221260E08EE00E9422120E94280B81E10B
:1016F00090E00C94EE0181E892E00E94DA0C0E94E6
:1017000045010E9402011816190664F480916C02CA
:1017100090916D02892B31F00E94D400019711F451
:101720000C94D50508950F930FE22BE34CE261E68C
:1017300075E081E892E00E94CE0B0F9108950F931F
:10174000FC01DC01AA5ABD4F11961C921E921597FE
:1017500011967C936E93108613964C9311972C934D
:1017600012960C9380E483838FE38483128219970B
:1017700011961C921E92129611961C921E9214970C
:1017800081E08C931E96CF0184549D4F1D921D9233
:10179000A817B907D9F717820F9108950F930E94E0
:1017A0009F0B0F910895FC01EA5AFD4F71836083EE
:1017B0000895623350F49C01260F311D260F311D10
:1017C000F901E85AFD4F518340830895CF93DF9389
:1017D000DC01F90191E08081841390E0EB018881C4
:1017E0008083AB5ABD4F2C91821302C0911110829D
:1017F000892FDF91CF9108956F927F928F929F9260
:10180000AF92BF92CF92DF92EF92FF920F931F930E
:10181000CF93DF93EC017B011D828B013C0185E0BE
:10182000680E711C5E01EBEAAE1AEDEFBE0A4E01C6
:10183000FCEA8F1AFDEF9F0A6801CE18DF089301BA
:10184000F5014081B801CE010E94E60BF8019191AB
:101850008F01911102C0882331F0F401208192138D
:10186000EBCF8111E9CFC601DF91CF911F910F918D
:10187000FF90EF90DF90CF90BF90AF909F908F90B0
:101880007F906F900895BF92CF92DF92EF92FF9278
:101890000F931F93CF93DF937C01B42E69016115E1
:1018A000710519F4D9016D917C91EB018E014B2DDD
:1018B000BE01C7010E94FC0B892B29F42196F80177
:1018C00080818111F3CFF8018081882391F04B2D25
:1018D000B801C7010E94FC0BF801E80FF91F8081D5
:1018E000882311F010823196D601ED93FC93C80144
:1018F00002C080E090E0DF91CF911F910F91FF90A7
:10190000EF90DF90CF90BF9008950F931F93CF93E8
:10191000DF93FC01E75BFD4F2081222339F1213069
:1019200031F4BC01675F7F4F22E0208302C060E09A
:1019300070E0EC01C65BDD4F28818C01045B1D4F1C
:10194000222361F09C01225B3D4FFC01EC5AFD4FCC
:1019500040810E94430CF80191838083F8018081CB
:101960009181892B19F081E0888301C080E0DF91AB
:10197000CF911F910F910895CF93DF93EC010E94B7
:10198000850CFE01E55BFD4F882371F0DE01A65B4F
:10199000BD4F81E08C938083C45BDD4F888199814A
:1019A000DF91CF910C94AA18108280E090E0DF9133
:1019B000CF9108952F923F924F925F926F927F92B4
:1019C0008F929F92AF92BF92CF92DF92EF92FF924F
:1019D0000F931F93CF93DF93CDB7DEB72D970FB63D
:1019E000F894DEBF0FBECDBF8C017C012FEAE21A56
:1019F0002DEFF20A5C0187EBA81A8DEFB80A1801E7
:101A00009BEA291A9DEF390AD801AD5ABD4FB98713
:101A1000A887F801EA5AFD4FFB87EA87C801855B72
:101A20009D4F9D878C87F80187818111B6C0D701B2
:101A30008D919C91DC01ED91FC910480F581E02D6C
:101A40000995892B09F4A9C0F70180819181DC01F6
:101A5000ED91FC910480F581E02D0995811592406E
:101A60000CF097C0D7018D919C91DC01ED91FC9118
:101A70000480F581E02D09956C01A6012801B9E4E7
:101A80004B0E511CB201F701808191810E94E71534
:101A9000812C912C3801F6E06F0E711CC801845B1B
:101AA0009D4F9B838A83D801A25BBD4FBD83AC83CE
:101AB000F801E65BFD4FFF83EE838C149D0409F46F
:101AC000B2CFD2018D912D018983F501108293014E
:101AD000D1014C91BE016F5F7F4FC8010E94E60BA0
:101AE0002981E885F9853081D80112969C91129759
:101AF000F801E90FF11D231319C0811117C01186D8
:101B0000992329F021E0F501208316961C92F80113
:101B10001282AA81BB811D921C92EC81FD811182EF
:101B20001082E1E0AE81BF81EC930AC021879F5F04
:101B3000D80112969C93129714968C91981738F7A7
:101B4000F5018081813009F5C8010E94BC0CD801E3
:101B500011968C93823390F4EC85FD8520812223AD
:101B600069F09927FC01E45DFE4FEE0FFF1FE00FC7
:101B7000F11F0190F081E02D309731F4AA85BB85EB
:101B8000ED91FC91309709F00995BFEF8B1A9B0AF4
:101B900094CFC12C82E0D82E70CF2D960FB6F8943A
:101BA000DEBF0FBECDBFDF91CF911F910F91FF9090
:101BB000EF90DF90CF90BF90AF909F908F907F90ED
:101BC0006F905F904F903F902F900895CF93DF9349
:101BD000EC010E94850CFE01E55BFD4F882359F066
:101BE000DE01A65BBD4F81E08C938083C45BDD4F3B
:101BF0008881998103C0108280E090E0DF91CF91CD
:101C000008954F925F926F927F92AF92BF92CF9260
:101C1000DF92EF92FF920F931F93CF93DF93FC011C
:101C20001082118212824423B9F18B01075F1F4F8A
:101C30005C01EB012C96442E512C612C712CD801A7
:101C40001397CC90D8012D918D01CC20F9F022234F
:101C5000E9F0822F90E0A0E0B0E09C01AD012F5FA1
:101C60003F4F4F4F5F4FC301B2010E94AE179B0120
:101C7000AC01D12CE12CF12CC701B6016F5F7F4F75
:101C80008F4F9F4F0E94AE17D5018C93BFEFAB1AB9
:101C9000BB0A0C171D0799F6CF01DF91CF911F9159
:101CA0000F91FF90EF90DF90CF90BF90AF907F901B
:101CB0006F905F904F900895CF92DF92EF92FF92D6
:101CC0000F931F93CF93DF938C016B01EA0179018E
:101CD000121613061CF07A01C0E0D0E0D801ED9195
:101CE000FC910480F581E02DC8010995BE01660FC5
:101CF000771FC60FD71FB6016C0F7D1FF8017383C6
:101D00006283F686E5860190F081E02D0284F385FA
:101D1000E02DC8010995009711F19C0140E050E0C9
:101D200060E472E48FE090E00E940818C0904E05D5
:101D3000D0904F05E0905005F0905105C901DA01AF
:101D40008C159D05AE05BF0510F4D701C601809323
:101D50004E0590934F05A0935005B0935105C801CF
:101D6000DF91CF911F910F91FF90EF90DF90CF9077
:101D70000895CF92DF92EF92FF920F931F93CF932C
:101D8000DF932091410530914205A9014F5F5F4FDC
:101D9000509342054093410526173707B4F1EC01F3
:101DA0000E9469118B019C01E0914105F09142056F
:101DB00088EE93E0E89FB001E99F700DF89F700DE9
:101DC0001124072E000C880B990BC0903D05D09074
:101DD0003E05E0903F05F0904005A90198012C19BF
:101DE0003D094E095F090E94E6173A832983109244
:101DF0004205109241050E94691160933D05709360
:101E00003E0580933F0590934005DF91CF911F9150
:101E10000F91FF90EF90DF90CF900895AF92BF9217
:101E2000CF92DF92EF92FF920F931F93CF93DF93A6
:101E300000D01F92CDB7DEB77C01D62EF70183818B
:101E40009481A581B681892B8A2B8B2BD1F00E949E
:101E5000751100914305109144052091450530917D
:101E60004605DC01CB01801B910BA20BB30BF701E4
:101E7000038114812581368180179107A207B3075A
:101E8000E8F20E94751160934305709344058093B6
:101E9000450590934605D7011B96ED91FC911C9743
:101EA000309751F0D70117964D915D916D917C91CE
:101EB0001A978D2D0995D82E0091490510914A0544
:101EC0000115110551F1F801C484D70111968D91C6
:101ED0009C9112978436910508F41486D801ED91EF
:101EE000FC91A280B3804D2DB801CE0101960E94D5
:101EF000010EF80145855685628173819E012F5F31
:101F00003F4FC801F5010995D8011C96CC921C974A
:101F100014960D911C911597D3CF69E170E0C7011C
:101F20000E94B90E0F900F900F90DF91CF911F91EB
:101F30000F91FF90EF90DF90CF90BF90AF900895FA
:101F40008F929F92AF92BF92CF92DF92EF92FF92C9
:101F50000F931F93CF93DF93EC016A017B010E94E3
:101F600069114B015C0161E070E080E090E00E944B
:101F700098116881CE010E940E0F0E9469118B0199
:101F80009C01081919092A093B090C151D052E0584
:101F90003F0548F3DF91CF911F910F91FF90EF9094
:101FA000DF90CF90BF90AF909F908F900895EBE41B
:101FB000F5E08FEF808312821182148613868FEFF3
:101FC0009FEFDC0187839087A187B2870895FC018A
:101FD0002081269F020E20E0211D20832181269F43
:101FE000020E20E0211D21832281269F020E20E087
:101FF000211D228311240895CF92DF92EF92FF9248
:102000000F931F93CF93DF9300D000D0CDB7DEB7EF
:102010006B0149833FEF3B8330EF3A837C0100E063
:1020200010E00C151D0584F4B701CE0101962C8338
:102030000E945C1089812C81820F89830F5F1F4F62
:1020400083E0E80EF11CEDCF0F900F900F900F90F2
:10205000DF91CF911F910F91FF90EF90DF90CF9084
:102060000895CF92DF92EF92FF920F931F93CF9339
:10207000DF931F92CDB7DEB77B018C01C12CD12C31
:10208000CE14DF0461F0642FC80149830E94E70F7A
:102090008FEFC81AD80A0D5F1F4F4981F1CF0F90FB
:1020A000DF91CF911F910F91FF90EF90DF90CF9034
:1020B000089540950C943110DC01FB014C91119670
:1020C0005C91119712967C91342F3F71330F330F2F
:1020D000832F880F35E5282F239F020E20E0211D36
:1020E0001124642F6074942F907247FD21C06111F8
:1020F0000BC0911104C0822F8095422F11C045E57D
:10210000420F30E02BEA33C091110DC0382F4AEA5C
:10211000349F030E30E0311D11248BEA831B420FE4
:10212000282F30E024C080E0422F4095322F0EC08F
:10213000611111C091110CC0382F2AEA329F030E91
:1021400030E0311D11244BEA431B3B5A20E00FC005
:10215000322F30950BC0911104C085E5820F3BEA08
:1021600003C08AEA820F90E0321B282F40E05F3FD5
:1021700011F15523E9F0222321F0259F020E20E0E2
:10218000211D442321F0459F040E40E0411D3323CF
:1021900021F0359F030E30E0311D11245095559FDD
:1021A000050E50E0511D1124250F450F350F03C0BA
:1021B0003FEF4FEF2FEF7F3F09F420C050E0772330
:1021C00021F0779F512D09F05F5F5523A1F0222365
:1021D00021F0259F020E20E0211D442321F0459F80
:1021E000040E40E0411D332321F0359F030E30E003
:1021F000311D112403C030E040E020E02083418302
:10220000328308958E3008F08E50877020910C0133
:1022100090E4299F90011124822B80937C0080916F
:102220007A00806480937A0080917A0086FDFCCFEA
:10223000809178002091790090E0922B08951F9270
:102240000F920FB60F9211242F933F938F939F936A
:10225000AF93BF938091590590915A05A0915B056A
:10226000B0915C053091580523E0230F2D3720F401
:102270000196A11DB11D05C026E8230F0296A11DE0
:10228000B11D209358058093590590935A05A0934A
:102290005B05B0935C0580915D0590915E05A09112
:1022A0005F05B09160050196A11DB11D80935D058C
:1022B00090935E05A0935F05B0936005BF91AF91C9
:1022C0009F918F913F912F910F900FBE0F901F9074
:1022D00018952FB7F8946091590570915A0580911F
:1022E0005B0590915C052FBF08953FB7F8948091EE
:1022F0005D0590915E05A0915F05B091600526B5E2
:10230000A89B05C02F3F19F00196A11DB11D3FBF2D
:102310006627782F892F9A2F620F711D811D911DBD
:1023200042E0660F771F881F991F4A95D1F70895DD
:10233000CF92DF92EF92FF92CF93DF936B017C01FC
:102340000E947511EB01C114D104E104F10479F08C
:102350000E9475116C1B7D0B683E7340A0F381E0F9
:10236000C81AD108E108F108C851DC4FECCFDF9161
:10237000CF91FF90EF90DF90CF900895789484B53F
:10238000826084BD84B5816084BD85B5826085BD71
:1023900085B5816085BDEEE6F0E080818160808357
:1023A000E1E8F0E01082808182608083808181603A
:1023B0008083E0E8F0E0808181608083E1EBF0E001
:1023C000808184608083E0EBF0E0808181608083A5
:1023D000EAE7F0E08081846080838081826080838E
:1023E0008081816080838081806880831092C100B9
:1023F0000895833081F028F4813099F08230A1F083
:1024000008958630A9F08730B9F08430D1F48091F6
:1024100080008F7D03C0809180008F778093800043
:10242000089584B58F7702C084B58F7D84BD0895EB
:102430008091B0008F7703C08091B0008F7D809332
:10244000B0000895CF93DF9390E0FC01E456FF4F76
:102450002491FC01E055FF4F8491882349F190E0DD
:10246000880F991FFC01E253FF4FA591B4918C5343
:102470009F4FFC01C591D4919FB7611108C0F8949A
:102480008C91209582238C93888182230AC06230AC
:1024900051F4F8948C91322F309583238C9388815A
:1024A000822B888304C0F8948C91822B8C939FBFDD
:1024B000DF91CF9108950F931F93CF93DF931F92D6
:1024C000CDB7DEB7282F30E0F901E857FF4F8491F0
:1024D000F901E456FF4F1491F901E055FF4F0491C3
:1024E0000023C9F0882321F069830E94F9116981D2
:1024F000E02FF0E0EE0FFF1FEC53FF4FA591B491DA
:102500009FB7F8948C91611103C01095812301C08D
:10251000812B8C939FBF0F90DF91CF911F910F91D3
:102520000895CF93DF938230910510F482E090E01C
:10253000E0910D06F0910E0620E030E0A0E0B0E062
:10254000309739F14081518148175907B8F0481741
:10255000590771F482819381109729F013969C9307
:102560008E9312972CC090930E0680930D0627C071
:102570002115310531F04217530718F0A901DB018D
:1025800001C0EF019A01BD01DF010280F381E02D5E
:10259000D7CF21153105F9F0281B390B243031052F
:1025A00080F48A819B816115710521F0FB01938381
:1025B000828304C090930E0680930D06FE0132962E
:1025C00044C0FE01E20FF31F819391932250310921
:1025D000398328833AC020910B0630910C06232BB7
:1025E00041F420910F013091100130930C0620939B
:1025F0000B0620910D0130910E012115310541F49A
:102600002DB73EB74091110150911201241B350B9B
:10261000E0910B06F0910C06E217F307A0F42E1BD5
:102620003F0B2817390778F0AC014E5F5F4F241736
:10263000350748F04E0F5F1F50930C0640930B0672
:102640008193919302C0E0E0F0E0CF01DF91CF9160
:102650000895CF93DF93009709F487C0FC01329768
:1026600013821282C0910D06D0910E06209781F43C
:1026700020813181280F391F80910B0690910C0623
:102680008217930779F5F0930C06E0930B066DC063
:10269000DE0120E030E0AE17BF0750F412964D91F6
:1026A0005C9113979D014115510509F1DA01F3CFB2
:1026B000B383A28340815181840F951F8A179B07A2
:1026C00071F48D919C911197840F951F02969183BF
:1026D000808312968D919C91139793838283211509
:1026E000310529F4F0930E06E0930D063EC0D901A2
:1026F0001396FC93EE9312974D915D91A40FB51F25
:10270000EA17FB0779F480819181840F951F029667
:10271000D90111969C938E938281938113969C93F9
:102720008E931297E0E0F0E08A819B81009719F088
:10273000FE01EC01F9CFCE01029628813981820F8A
:10274000931F20910B0630910C062817390769F466
:10275000309729F410920E0610920D0602C01382D3
:102760001282D0930C06C0930B06DF91CF9108958F
:102770000E94BE110E945F0BCEE9D4E10E947B0B48
:102780002097E1F30E949E14F9CFFC0181E090E0D4
:102790002081222311F080E090E0089521E0FC01E7
:1027A00020830895FC0124853585F901E05CFF4F05
:1027B00080819181329620813181821B930B8F73AE
:1027C00099270895FC0184859585FC01E05CFF4F05
:1027D000408151813296208131814217530741F067
:1027E0000190F081E02DE80FF91F808190E00895BD
:1027F0008FEF9FEF0895FC0184859585FC01E05CD7
:10280000FF4F408151813296208131814217530719
:1028100079F0A081B181A80FB91F8C9120813181FD
:102820002F5F3F4F2F7333273183208390E008952C
:102830008FEF9FEF0895FC0181A1882329F0A489DF
:10284000B5898C9186FFFBCF11A20895CF93DF93BA
:10285000FC0126853785D901A05CBF4F8D919C91E5
:10286000119701968F739927E901CE5BDF4F48815D
:10287000598184179507D9F30D90BC91A02DA20F13
:10288000B31F6C93A685B785A05CBF4F11969C9330
:102890008E93A689B7892C9181E090E0078C02C0C5
:1028A000880F991F0A94E2F7282B2C9381E081A3CB
:1028B0000488F589E02D80818064808381E090E048
:1028C000DF91CF91089508951F920F920FB60F9246
:1028D00011242F933F934F938F939F93EF93FF93E5
:1028E0008091C00082FD1CC04091C6008091070607
:1028F0009091080601968F739927209109063091CF
:102900000A068217930771F0E0910706F091080616
:10291000E953FA4F4083909308068093070602C05C
:102920008091C600FF91EF919F918F914F913F91C0
:102930002F910F900FBE0F901F90189581E695E094
:102940000E94D213892B11F00C94631408951F92E6
:102950000F920FB60F9211242F933F938F939F9353
:10296000EF93FF932091C3053091C4058091C50575
:102970009091C6052817390731F48091C1008F7DE9
:102980008093C10014C0E091C505F091C605ED57D4
:10299000FA4F20818091C5059091C60501968F73ED
:1029A00099279093C6058093C5052093C600FF9193
:1029B000EF919F918F913F912F910F900FBE0F90AC
:1029C0001F901895CF92DF92EF92FF92CF93DF93F3
:1029D000EC016A017B01411581EE58076105710523
:1029E000F9F0EC89FD8981E090E008A002C0880F31
:1029F000991F0A94E2F7808360E079E08DE390E02C
:102A0000A70196010E94E617215031094109510999
:102A10005695479537952795211580E1380798F009
:102A2000EC89FD89108260E874E88EE190E0A701EE
:102A300096010E94E6172150310941095109569526
:102A4000479537952795E889F9893083EA89FB8985
:102A5000208319A2EE89FF89408181E090E09C01EA
:102A60000C8C02C0220F331F0A94E2F7422B4083E2
:102A7000EE89FF8940819C010D8C02C0220F331F1B
:102A80000A94E2F7422B4083EE89FF8940819C0142
:102A90000E8C02C0220F331F0A94E2F7422B4083B0
:102AA000EE89FF8920810F8C02C0880F991F0A943C
:102AB000E2F7809582238083DF91CF91FF90EF90A2
:102AC000DF90CF900895109264051092630588EE10
:102AD00093E0A0E0B0E08093650590936605A09335
:102AE0006705B093680581E292E090936205809358
:102AF000610587EC95E090936E0580936D0583E802
:102B000095E09093700580936F0585EC90E090932D
:102B100072058093710584EC90E090937405809326
:102B2000730580EC90E0909376058093750581ECB9
:102B300090E0909378058093770582EC90E09093F5
:102B40007A058093790586EC90E090937C058093DC
:102B50007B0584E080937D0583E080937E0587E09C
:102B600080937F0585E08093800581E080938105D7
:102B700008950F931F93CF93DF93EC010E94691187
:102B8000688779878A879B87E881F9810680F78142
:102B9000E02DCE01099597FF15C00E9469110885A7
:102BA00019852A853B85601B710B820B930B0C8169
:102BB0001D812E813F81601771078207930720F3E3
:102BC0008FEF9FEFDF91CF911F910F910895CF92DB
:102BD000DF92EF92FF920F931F93CF93DF937C01CD
:102BE0006A01EB0100E010E00C151D0549F0C7017A
:102BF0000E94B91597FD04C089930F5F1F4FF4CF52
:102C0000C801DF91CF911F910F91FF90EF90DF905E
:102C1000CF9008954F925F926F927F92AF92BF9242
:102C2000CF92DF92EF92FF920F931F93CF93DF9398
:102C3000CDB7DEB729013A01621B730B840B950BEC
:102C400029893A894B895C892A193B094C095D0914
:102C5000298B3A8B4B8B5C8B9B01AC0169897A8900
:102C60008B899C890E94AE17E418F508060917099C
:102C7000A80197010E9408182A0D3B1D4C1D5D1DDF
:102C8000CA01B901DF91CF911F910F91FF90EF9091
:102C9000DF90CF90BF90AF907F906F905F904F90FC
:102CA0000895CF92DF92EF92FF920F931F93CF93ED
:102CB000DF936C017A01EB01E60EF71E00E010E0F5
:102CC000CE15DF0561F06991D601ED91FC9101907F
:102CD000F081E02DC6010995080F191FF1CFC80139
:102CE000DF91CF911F910F91FF90EF90DF90CF90E8
:102CF00008956115710581F0DB010D900020E9F761
:102D0000AD0141505109461B570BDC01ED91FC917F
:102D10000280F381E02D099480E090E00895EF9225
:102D2000FF920F931F93CF93DF938C01FB01C0E0C1
:102D3000D0E064917F018FEFE81AF80A662361F012
:102D4000D801ED91FC910190F081E02DC801099529
:102D5000C80FD91FF701EDCFCE01DF91CF911F91A1
:102D60000F91FF90EF9008950C947916DC01ED918E
:102D7000FC910190F081E02D09940F931F93CF9364
:102D8000DF93EC016DE00E94B6168C016AE0CE0183
:102D90000E94B616800F911FDF91CF911F910F9166
:102DA00008958F929F92AF92BF92CF92DF92EF924F
:102DB000FF920F931F93CF93DF93CDB7DEB7A19709
:102DC0000FB6F894DEBF0FBECDBF7C01C42EE52F39
:102DD000CB01D22E19A221E02D1510F02AE0D22E1F
:102DE0008E010F5D1F4F8D2C912CA12CB12C6C2DC1
:102DF0007E2FA50194010E94E6178C2DD29E80198A
:102E00001124015011098A3014F4805D01C0895CDD
:102E1000F8018083211531054105510521F0C22EAD
:102E2000E32FCA01E4CFB801C7010E947916A19629
:102E30000FB6F894DEBF0FBECDBFDF91CF911F91CB
:102E40000F91FF90EF90DF90CF90BF90AF909F9049
:102E50008F900895CF92DF92EF92FF920F931F937E
:102E6000CF93DF93EC016A017B012115310579F4E1
:102E7000E881F9810190F081E02D642FDF91CF91FD
:102E80001F910F91FF90EF90DF90CF9009942A301F
:102E90003105E9F477FF1AC06DE20E94B6168C0185
:102EA00044275527BA014C195D096E097F092AE0AC
:102EB000CE010E94D116800F911FDF91CF911F91FB
:102EC0000F91FF90EF90DF90CF9008952AE0B70127
:102ED000A601CE01DF91CF911F910F91FF90EF904E
:102EE000DF90CF900C94D1169A01AB01662757FD65
:102EF0006095762F0C942A170F931F93CF93DF932F
:102F0000EC019A01AB01662757FD6095762F0E9470
:102F10002A178C01CE010E94BD16800F911FDF91F0
:102F2000CF911F910F9108952115310541F4DC01D6
:102F3000ED91FC910190F081E02D642F09940C94A7
:102F4000D1169A01462F50E060E070E00C9494177F
:102F50009A01AB0160E070E00C949417DB018F9351
:102F60009F930E942E18BF91AF91A29F800D911D3B
:102F7000A39F900DB29F900D11240895AA1BBB1B17
:102F800051E107C0AA1FBB1FA617B70710F0A61B69
:102F9000B70B881F991F5A95A9F780959095BC018A
:102FA000CD01089597FB072E16F4009407D077FD06
:102FB00009D00E94BE1707FC05D03EF4909581957C
:102FC0009F4F0895709561957F4F0895A1E21A2E45
:102FD000AA1BBB1BFD010DC0AA1FBB1FEE1FFF1FBD
:102FE000A217B307E407F50720F0A21BB30BE40B0D
:102FF000F50B661F771F881F991F1A9469F7609554
:103000007095809590959B01AC01BD01CF0108950D
:10301000052E97FB1EF400940E941F1857FD07D041
:103020000E94E61707FC03D04EF40C941F1850952D
:103030004095309521953F4F4F4F5F4F08959095A4
:103040008095709561957F4F8F4F9F4F08950E9497
:103050003F18B7FF0895821B930B08950E943F18F5
:10306000A59F900DB49F900DA49F800D911D1124DC
:103070000895EE0FFF1F0590F491E02D0994A29F93
:10308000B001B39FC001A39F700D811D1124911D3C
:10309000B29F700D811D1124911D08958F929F92F2
:1030A000AF92BF92CF92DF92EF92FF92CF93DF93D6
:1030B000EC01688179818A819B81611571058105A7
:1030C000910521F464E279ED8BE597E02DE133EF92
:1030D00041E050E00E94081849015A019B01AC01EF
:1030E000A7EAB1E40E942E186B017C01ACEEB4EFAC
:1030F000A50194010E94D318DC01CB018C0D9D1D0C
:10310000AE1DBF1DB7FF03C00197A109B04888835A
:103110009983AA83BB83BC01CD019F77DF91CF91B7
:10312000FF90EF90DF90CF90BF90AF909F908F90E7
:1031300008950E944E18089580E091E00E944E1874
:1031400008956093000170930101809302019093B0
:1031500003010895FC0188279927E89421912032E2
:10316000E9F3293010F02E30C8F32B3241F02D3224
:1031700039F4689404C00E94C818820F911D2191EF
:1031800020532A30C0F31EF4909581959F4F0895E7
:103190007AE0979F902D879F802D910D112408959F
:1031A000B7FF0C942E180E942E18821B930B0895C3
:0431B000F894FFCFC1
:1031B4000100000000046400010001000100000F90
:1031C4000680000000000026057105C5009E009AD7
:1031D40000C2005904003131295A1B750AFF076ADD
:1031E40008D5083F09A909110A780ADD0A400BA18C
:1031F4000BFF0B5A0CB20C080D590DA70DF10D362F
:103204000E770EB40EEC0E1F0F4D0F770F9A0FB9F9
:103214000FD20FE50FF30FFC0FFF0FFC0FF30FE5B9
:103224000FD20FB90F9A0F770F4D0F1F0FEC0EB47B
:103234000E770E360EF10DA70D590D080DB20C5A6E
:103244000CFF0BA10B400BDD0A780A110AA9093FF8
:1032540009D5086A08FF0794072907BF065506ED34
:103264000586052105BE045D04FF03A4034C03F693
:1032740002A50257020D02C80187014A011201DFAB
:1032840000B1008700640045002C0019000B000207
:1032940000000002000B0019002C004500640087A8
:1032A40000B100DF0012014A018701C8010D025775
:1032B40002A502F6024C03A403FF035D04BE04212D
:1032C400058605ED055506BF06290794070000008D
:0E32D4000026145116D213FB13E2131B140034
:00000001FF
